:100000000C94B5000C94D2000C94D2000C94C7054B
:100010000C94D2000C94E2050C94D2000C94D20003
:100020000C94D2000C94D2000C94D2000C94D20008
:100030000C94D2000C944F050C94D2000C94D20076
:100040000C94D2000C94D2000C94D2000C94D200E8
:100050000C94D2000C94D2000C94D2000C94D200D8
:100060000C94D2000C94D2006E616E00696E660032
:1000700000407A10F35A00A0724E18090010A5D45F
:10008000E80000E87648170000E40B54020000CABC
:100090009A3B000000E1F505000080969800000002
:1000A00040420F000000A086010000001027000061
:1000B0000000E803000000006400000000000A00E7
:1000C000000000000100000000002C76D888DC67EA
:1000D0004F0823DFC1DFAE59E1B1B796E5E3E45342
:1000E000C63AE651997696E8E6C28426EB898C9B5F
:1000F00062ED407C6FFCEFBC9C9F40F2BAA56FA5FF
:10010000F490055A2AF75C936B6CF9676DC11BFC80
:10011000E0E40D47FEF520E6B500D0ED902E03009B
:10012000943577050080841E080000204E0A0000E8
:1001300000C80C333333330F986E12831141EF8DA7
:100140002114893BE65516CFFEE6DB18D1844B38E7
:100150001BF77C1D901DA4BBE424203284725E2218
:100160008100C9F124ECA1E53D2711241FBECFEF8A
:10017000D8E0DEBFCDBF11E0A0E0B1E0E4E4F8E1FB
:1001800002C005900D92A03BB107D9F712E0A0EB99
:10019000B1E001C01D92A83AB107E1F70E94FD0548
:1001A0000C94200C0C9400004D9B02C080E008953C
:1001B0008AE0EFECF7E03197F1F700C000004D99CD
:1001C000F5CF8150B1F781E008950E949C048DE342
:1001D00091E09F938F930E948C0B0F900F90089546
:1001E000CF92DF92EF92FF92CF93DF93E0915C0288
:1001F000F0915D02A085B185C285C080D180E2808A
:10020000F38084E0C89FE0011124C25FDE4F2881A3
:1002100039814A815B810E94BB096C0D7D1D8E1D59
:100220009F1D608371838283938380819181A281EA
:10023000B38184839583A683B78311861086DF916B
:10024000CF91FF90EF90DF90CF900895F894873092
:1002500008F080E08093B40126E1829FC001112460
:1002600089549E4F90935D0280935C02F894809134
:100270005C0290915D02089690939E0280939D028D
:100280007894E0915C02F0915D0282858093510246
:1002900080E090E0A0E8B0E08093B0019093B101DD
:1002A000A093B201B093B3010895E0915C02F09184
:1002B0005D02928581E0973009F080E008958F9289
:1002C0009F92AF92BF92CF92DF92EF92FF920F93E5
:1002D0001F93CF93DF93CDB7DEB7A8970FB6F894EF
:1002E000DEBF0FBECDBF6B017C0185E00E949C0488
:1002F00089E491E09F938F9388EE882E83E0982E77
:10030000A12CB12CC701B601A50194010E94F509E9
:100310009F938F937F936F93CA01B901A5019401B5
:100320000E94F5099F938F937F936F93C701B60146
:1003300020E432E44FE050E00E94D3095F934F93F2
:100340003F932F938EE491E09F938F938E010F5FE5
:100350001F4F1F930F930E94A00B1F930F9382E6D2
:1003600091E09F938F930E948C0B0FB6F894DEBFA1
:100370000FBECDBFA8960FB6F894DEBF0FBECDBF9F
:10038000DF91CF911F910F91FF90EF90DF90CF9071
:10039000BF90AF909F908F90089580E00E949C0442
:1003A00080915C0290915D020C969F938F9385E6FD
:1003B00091E09F938F930E948C0BE0915C02F091EF
:1003C0005D0264817581868197810F900F900F90F7
:1003D0000F900C945F01CF92DF92EF92FF92CF9338
:1003E000DF93E0915C02F0915D02C080D180E280F9
:1003F000F380A085B185C28584E0C89FE001112407
:10040000C25FDE4F288139814A815B810E94BB092E
:100410006C0D7D1D8E1D9F1D648375838683978360
:10042000DF91CF91FF90EF90DF90CF9008954F92A2
:100430005F926F927F928F929F92AF92BF92CF9274
:10044000DF92EF92FF920F931F93CF93DF93C7EB4F
:10045000D1E010E090E4C92E9FE6D92EEC2CFF24C9
:10046000F394812C2FE3922E2BEAA22EBB24B3947B
:1004700030E8432E36E9532E38E9632E712C04E020
:10048000D0935D02C0935C026FE671E0CE010C96E2
:100490000E94480B8C85810F8C871330F1F02CF46F
:1004A000113069F0123081F005C0153001F1D4F03F
:1004B000163011F180EC9FECAAE6B0E009C048824A
:1004C00059826A827B821CC080E89FE9A5EDB0E07A
:1004D00088839983AA83BB8313C080E292EBA3E154
:1004E000B1E0F6CFC882D982EA82FB8209C080E9F6
:1004F0009AECABE7B1E0ECCF88829982AA82BB820A
:10050000198618860A870E94F0001F5F66961730CA
:1005100009F0B6CFDF91CF911F910F91FF90EF902F
:10052000DF90CF90BF90AF909F908F907F906F9013
:100530005F904F9008958F929F92AF92BF92CF920B
:10054000DF92EF92FF92CF93DF93F09051022091D0
:100550005402309155028217930739F09093550257
:10056000809354020E94260118C0F8948091B4012F
:1005700026E1829FC001112489549E4F90935D0211
:1005800080935C02F89480915C0290915D020896E1
:1005900090939E0280939D02789480915102F81668
:1005A000C9F10E94F000F0925102C0915C02D0911A
:1005B0005D02FA8680E090E0A0E8B0E08093B001B0
:1005C0009093B101A093B201B093B3018880998058
:1005D000AA80BB8084E0F89EF0011124E25FFE4F08
:1005E000C080D180E280F3800E945501811112C049
:1005F000C0915C02D0915D02C501B401A7019601D2
:100600000E94D309C701B6010E94C3096883798398
:100610008A839B830E94EB01E0915C02F0915D0272
:1006200084819581A681B781809358029093590265
:10063000A0935A02B0935B024091B0015091B10176
:100640006091B2017091B30184179507A607B707AF
:10065000C1F084819581A681B7818093B001909388
:10066000B101A093B201B093B301DF91CF91FF909C
:10067000EF90DF90CF90BF90AF909F908F900C94B1
:10068000CD01DF91CF91FF90EF90DF90CF90BF90A1
:10069000AF909F908F9008950E94170287EB91E092
:1006A00090935D0280935C02F89480915C0290913B
:1006B0005D02089690939E0280939D02789408951F
:1006C000E9EBF0E080818C7F808388E48093B80040
:1006D000089584EA8093BC008091BC0087FFFCCF22
:1006E000089584E98093BC008091BC0084FDFCCF18
:1006F00008958093BB0084E88093BC008091BC0087
:1007000087FFFCCF08958093BB0084E88093BC00F2
:100710008091BC0087FFFCCF089584E88093BC00E3
:100720008091BC0087FFFCCF8091BB000895CF93E0
:10073000DF9300D01F92CDB7DEB74B836A838983E6
:100740000E94690389810E9479036A81862F0E9431
:1007500083034B81842F0E9483030F900F900F908F
:10076000DF91CF910C9471031F93CF93DF931F926E
:10077000CDB7DEB7182F69830E946903812F0E94CD
:1007800079036981862F0E9483030E946903812F68
:1007900081600E9479030E948D0389830E94710306
:1007A00089810F90DF91CF911F910895EF92FF9271
:1007B0000F931F93CF93DF9300D0CDB7DEB7162FE3
:1007C00089839A830E9469038981082FE82E9A8180
:1007D000F92E8E2D801B811730F4F70181917F0156
:1007E0000E948303F6CF0F900F90DF91CF911F915E
:1007F0000F91FF90EF900C947103EF92FF920F9383
:100800001F93CF93DF938C01F62E0E946903F801AA
:1008100080810E948303E02EC02FD12F21968C2F40
:100820008E198F1520F40E948D038883F7CF0E94C4
:10083000710380E0DF91CF911F910F91FF90EF90B6
:10084000089590913C01990F90935F02807F80936F
:100850006002982F9460909361028093620264E03A
:100860008FE592E00C94D60390913C01990F909300
:100870005F02282F207F922F9860909360022C6057
:10088000209361029093620220E1829FC0011124B3
:10089000982F9860909363028C6080936402909389
:1008A000650267E08FE592E00C94D60380E80C9433
:1008B000340490913C01990F90935F02282F207F80
:1008C000922F9960909360022D6020936102909323
:1008D000620220E1829FC0011124982F99609093B9
:1008E00063028D60809364029093650267E08FE5F8
:1008F00092E00C94D6038A3021F08D3011F00E94E2
:10090000590480E090E0089581E00E9434048FE96A
:100910009FE00197F1F700C000000895CF93DF93A7
:10092000EC018991882319F00E945904FACFDF91D4
:10093000CF9108950C94590480580C9434042FEFEF
:1009400089EF90E0215080409040E1F700C0000026
:100950002FE788E391E0215080409040E1F700C00C
:10096000000080E30E9421048FE097E20197F1F7F5
:1009700000C0000080E30E9421048FE097E201970D
:10098000F1F700C0000080E30E9421048FE097E2AD
:100990000197F1F700C0000080E20E94210488E284
:1009A0000E9434048CE00E94340486E00E943404E7
:1009B00081E00E9434048FE097E20197F1F700C0D4
:1009C0000000089583B18470089583B182FB882765
:1009D00080F991E08927089589B18071089589B1DE
:1009E0008295817091E089270895EFE6F0E080819B
:1009F0008E7F8083EBE6F0E080818B7F8083EDE665
:100A0000F0E080818F7E80830895EFE6F0E08081C2
:100A100081608083EBE6F0E0808184608083EDE696
:100A2000F0E0808180618083089585E992E0909371
:100A30009E0280939D025C9A2A9A80E09FEF909399
:100A400085008093840082E08093810084E080931D
:100A5000970280E180939A021092990281E080933C
:100A6000980210929C0280939B02E8E6F0E080815D
:100A7000816080838081846080830E94050510925C
:100A80009F021092A1021092910210929202109273
:100A9000930210929402089578940C9415051F9275
:100AA0000F920FB60F9211248F939F93AF93BF9322
:100AB000EF93FF938091910290919202A091930203
:100AC000B09194020196A11DB11D80939102909363
:100AD0009202A0939302B093940280E09FEF9093D0
:100AE00085008093840080919802823019F08430D0
:100AF000F1F028C0809199029FEF980F909399028E
:100B0000181604F183E08093980280919B02E09193
:100B10009D02F0919E02833021F4808191810197A2
:100B200003C0808191810196918380830BC0809165
:100B300099029FEF980F9093990218161CF085E088
:100B40008093980280919B02823019F0843051F09A
:100B500013C080919C02815080939C02181664F00F
:100B600083E008C080919C02815080939C021816FB
:100B70001CF085E080939B02FF91EF91BF91AF91B4
:100B80009F918F910F900FBE0F901F9018951F92FD
:100B90000F920FB60F9211248F9380919F028F5F57
:100BA00080939F0288E0809399021A9B02C082E0A2
:100BB00001C084E0809398028F910F900FBE0F9038
:100BC0001F9018951F920F920FB60F9211248F93BA
:100BD0008091A1028F5F8093A10288E080939C02A4
:100BE0004C9B02C082E001C084E080939B028F9105
:100BF0000F900FBE0F901F9018955D9A0E94600392
:100C00000E949F048EE291E09093A5028093A4023B
:100C100080E40E949C0482E791E09F938F930E945E
:100C20008C0B0E944C0380E40E949C042FEF82E511
:100C300097E0215080409040E1F700C0000080E440
:100C40000E949C048EE791E09F938F930E948C0BEF
:100C5000F89482E592E090939E0280939D027894AE
:100C6000F8940E944C05789480E00E9426010F9031
:100C70000F900F900F9080E090E00E949B02FBCFBE
:100C8000A3E1B0E0E6E4F6E00C94140A7C011B0159
:100C90006A01FC0117821682838181FF66C3BE014F
:100CA0006F5F7F4F4B01F7019381F10193FD8591B8
:100CB00093FF81911F01882309F453C3853239F4CE
:100CC00093FD859193FF81911F01853239F4B7011E
:100CD00090E00E945A0B56016501E5CF10E0512CBF
:100CE00020E02032A0F48B3269F030F4803259F0E9
:100CF000833269F420612CC08D3239F0803339F4AD
:100D0000216026C02260246023C0286021C027FD06
:100D100027C030ED380F3A3078F426FF06C0FAE0ED
:100D20001F9F300D1124132F13C06AE0569E300D03
:100D30001124532E20620CC08E3221F426FD11C3E3
:100D4000206406C08C3611F4206802C0883641F455
:100D5000F10193FD859193FF81911F018111C1CF15
:100D60009BEB980F933018F42061805E06C09BE9DE
:100D7000980F933008F0AAC12F7E26FF16E02F733C
:100D8000722E853621F4F22FF0647F2E08C086364D
:100D900021F4622F6068762E02C01111115077FE87
:100DA00007C01C3348F444244394410E27E00BC091
:100DB000183030F4212F06C027E04CE3442E03C046
:100DC00027E017E0412C560174E0A70EB11CF60194
:100DD0006081718182819381042DA4010E94650A42
:100DE0006C01098100FF02C003FF06C071FC07C04F
:100DF00072FC08C0612C08C03DE2632E05C02BE2E6
:100E0000622E02C090E2692E802F8C7099F16620CC
:100E100011F084E001C083E0851510F0512C0BC067
:100E2000581A73FC08C0B70180E290E00E945A0B88
:100E30005A94C9F7F3CF662029F0B701862D90E0C8
:100E40000E945A0B03FD03C00CE610E002C008E646
:100E500010E0F72DF0717F2EF8018491882309F4BA
:100E600076C271108052B70190E00E945A0B0F5F5A
:100E70001F4FF2CF77FE0FC04C0C04FF04C08A81D5
:100E8000813309F44A94141474F5F8E0F41578F5F4
:100E900088E0482E2CC076FC2AC0812F90E08C156B
:100EA0009D059CF06CEFC6166FEFD60674F0772D9B
:100EB0007068772E0AC0E2E0F0E0EC0FFD1FE10F52
:100EC000F11D8081803319F411501111F4CF77FE98
:100ED0000EC044244394410E812F90E0C816D906D9
:100EE0002CF41C1904C04424439401C010E077FE84
:100EF00007C01C141D043CF496012F5F3F4F05C032
:100F000025E030E002C021E030E0662011F02F5FE4
:100F10003F4F112331F0412F50E04F5F5F4F240FBF
:100F2000351F452D50E02417350714F4521A01C01F
:100F3000512C872D897049F4552039F0B70180E292
:100F400090E00E945A0B5A94F7CF662029F0B7011F
:100F5000862D90E00E945A0B73FC09C0552039F091
:100F6000B70180E390E00E945A0B5A94F7CF77FEC6
:100F70005FC09C2D8D2DD7FE02C090E080E0692ED1
:100F8000782E40E050E0C601841991099D878C8736
:100F9000960126193709280D391D812F90E0EE277B
:100FA000FF27E81BF90BFF87EE87FFEF6F167F0621
:100FB00069F4B7018EE290E02B8B3A8B488B598B0A
:100FC0000E945A0B598948893A892B89C614D7043B
:100FD00054F06C857D85661577052CF4F901E40FD6
:100FE000F51F818101C080E371E0671A71084F5FCE
:100FF0005F4FEE85FF856E167F066CF0B70190E0BF
:101000002B8B3A8B488B598B0E945A0B2B893A8930
:1010100048895989CACF6C147D0439F49A81963372
:1010200018F4953311F404FF81E3B70190E04BC04D
:101030008A81813309F00F7EB70190E00E945A0B3C
:10104000111105C074FE18C085E490E017C0B70107
:101050008EE290E00E945A0B82E066246394680E50
:10106000F401E80FF11D8081B70190E00E945A0B56
:10107000115041F3862DF1CF85E690E0B7010E9433
:101080005A0BD7FC05C0C114D10439F404FF05C0C4
:10109000D194C194D1088DE201C08BE2B70190E0F8
:1010A0000E945A0B80E36AE0C616D1042CF08F5FD1
:1010B000FAE0CF1AD108F7CFB70190E00E945A0B9F
:1010C000B701C601C0960E945A0B41C1833631F068
:1010D000833779F0833509F058C021C0560172E09A
:1010E000A70EB11CF6018081898301E010E0640144
:1010F00014C05601F2E0AF0EB11CF601C080D180E1
:1011000026FF03C0612F70E002C06FEF7FEFC601C2
:101110002B8B0E944F0B8C012B892F7715C056010A
:10112000F2E0AF0EB11CF601C080D18026FF03C0F3
:10113000612F70E002C06FEF7FEFC6012B8B0E9422
:101140003D0B8C012B892068722E23FD1AC0852D42
:1011500090E008171907A8F4B70180E290E00E9418
:101160005A0B5A94F4CFF60177FC859177FE819162
:101170006F01B70190E00E945A0B51105A94015030
:1011800011090115110579F7E2C0843611F089368D
:1011900051F5560127FF09C0F4E0AF0EB11CF6016E
:1011A00060817181828193810AC0F2E0AF0EB11C2F
:1011B000F60160817181882777FD8095982F022F35
:1011C0000F7697FF08C090958095709561957F4F39
:1011D0008F4F9F4F00682AE030E0A4010E94C20BAD
:1011E000C82EC8183EC0022F853721F40F7E2AE092
:1011F00030E01DC0097F8F3691F018F4883559F022
:10120000B0C0803719F0883711F0ABC0006104FF1F
:1012100009C0046007C024FF08C0066006C028E0BB
:1012200030E005C020E130E002C020E132E05601AC
:1012300007FF09C0F4E0AF0EB11CF60160817181B7
:101240008281938108C0F2E0AF0EB11CF60160818B
:10125000718180E090E0A4010E94C20BC82EC818E2
:101260000F7706FF0BC0202F2E7FC11650F404FF0E
:101270000AC002FD08C0202F2E7E05C0DC2C202FC6
:1012800003C0DC2C01C0D12E24FF0DC0FE01EC0DEB
:10129000F11D8081803311F4297E09C022FF06C030
:1012A000D394D39404C0822F867809F0D39423FD7D
:1012B00013C020FF06C01C2DD51418F4150D1D19E0
:1012C000D52CD51468F4B70180E290E02B8B0E94F6
:1012D0005A0BD3942B89F5CFD51410F45D1801C0A7
:1012E000512C24FF12C0B70180E390E02B8B0E94A9
:1012F0005A0B2B8922FF17C021FF03C088E590E01D
:1013000002C088E790E0B7010CC0822F867859F0C0
:1013100021FD02C080E201C08BE227FD8DE2B70112
:1013200090E00E945A0BC11638F4B70180E390E0B8
:101330000E945A0B1150F7CFCA94F401EC0DF11D25
:101340008081B70190E00E945A0BC110F5CF552063
:1013500009F4C2CCB70180E290E00E945A0B5A9483
:10136000F6CFF7018681978102C08FEF9FEF6396DA
:10137000E2E10C94300AB7FF0C944B0A0E944B0A2E
:10138000821B930B0895DB018F939F930E944B0A5E
:10139000BF91AF91A29F800D911DA39F900DB29F11
:1013A000900D11240895A1E21A2EAA1BBB1BFD016A
:1013B0000DC0AA1FBB1FEE1FFF1FA217B307E40734
:1013C000F50720F0A21BB30BE40BF50B661F771F8C
:1013D000881F991F1A9469F760957095809590956C
:1013E0009B01AC01BD01CF010895052E97FB1EF4B2
:1013F00000940E940C0A57FD07D00E94D30907FCF5
:1014000003D04EF40C940C0A5095409530952195DC
:101410003F4F4F4F5F4F0895909580957095619520
:101420007F4F8F4F9F4F08952F923F924F925F9221
:101430006F927F928F929F92AF92BF92CF92DF92E4
:10144000EF92FF920F931F93CF93DF93CDB7DEB749
:10145000CA1BDB0B0FB6F894DEBF0FBECDBF0994DD
:101460002A88398848885F846E847D848C849B8434
:10147000AA84B984C884DF80EE80FD800C811B8142
:10148000AA81B981CE0FD11D0FB6F894DEBF0FBE71
:10149000CDBFED0108950E94560AA59F900DB49FFF
:1014A000900DA49F800D911D11240895A29FB0015D
:1014B000B39FC001A39F700D811D1124911DB29F88
:1014C000700D811D1124911D0895283008F027E02A
:1014D0003327DA01990F311D87FD91600096610570
:1014E000710539F432602E5F3D9330E32A95E1F7C0
:1014F00008959F3F30F080387105610509F03C5F29
:101500003C5F3D93913008F08068911DDF93CF934D
:101510001F930F93FF92EF92192F987F9695E92FC3
:1015200096959695E90FFF27E653FF4F99273327A6
:10153000EE24FF24A701E70105900894079428F4FE
:10154000360FE71EF81E491F511D660F771F881FB3
:10155000991F0694A1F70590079428F4E70EF81E4A
:10156000491F561FC11D770F881F991F661F0694BC
:10157000A1F70590079428F4F80E491F561FC71FBE
:10158000D11D880F991F661F771F0694A1F705903C
:10159000079420F4490F561FC71FD81F990F661FC5
:1015A000771F881F0694A9F784911095177041F052
:1015B000D695C79557954795F794E7941A95C1F72F
:1015C000E0E7F0E06894159015913591659195915B
:1015D00005907FE27395E118F10A430B560BC90B96
:1015E000D009C0F7E10CF11E431F561FC91FD01DC3
:1015F0007EF4703311F48A95E6CFE894015030F010
:10160000080F0AF40027021708F4202F2395022F51
:101610007A3328F079E37D932A95E9F710C07D931A
:101620002A9589F606949795679537951795179497
:10163000E118F10A430B560BC90BD00998F023951A
:101640007E9173957A3308F070E37C932013B8F79A
:101650007E9170617D9330F0839571E37D9370E3AB
:101660002A95E1F71124EF90FF900F911F91CF91F0
:10167000DF91992787FD90950895FC0105906150B1
:1016800070400110D8F7809590958E0F9F1F089598
:10169000FB01DC0101900D920020E1F70895FC01AF
:1016A0006150704001900110D8F7809590958E0F91
:1016B0009F1F08950F931F93CF93DF93182F092F28
:1016C000EB018B8181FD03C08FEF9FEF20C082FF74
:1016D00010C04E815F812C813D81421753077CF4FD
:1016E000E881F9819F012F5F3F4F39832883108361
:1016F00006C0E885F985812F0995892B29F72E8168
:101700003F812F5F3F4F3F832E83812F902FDF91AB
:10171000CF911F910F910895A0E0B0E0E2E9FBE0C6
:101720000C94240AFE01359661917191AF0180916C
:10173000A4029091A5020E944006E2E00C94400AA7
:10174000AEE0B0E0E6EAFBE00C94220A0D891E89C7
:1017500086E08C831A8309838FEF9FE79E838D83B6
:10176000AE01475E5F4F6F89788DCE0101960E9472
:101770004006EF81F885E00FF11F10822E96E4E01D
:101780000C943E0AFA01AA27283051F1203181F148
:10179000E8946F936E7F6E5F7F4F8F4F9F4FAF4F79
:1017A000B1E03ED0B4E03CD0670F781F891F9A1F8C
:1017B000A11D680F791F8A1F911DA11D6A0F711D40
:1017C000811D911DA11D20D009F468943F912AE04C
:1017D000269F11243019305D3193DEF6CF01089534
:1017E000462F4770405D4193B3E00FD0C9F7F6CF65
:1017F000462F4F70405D4A3318F0495D31FD40522D
:10180000419302D0A9F7EACFB4E0A69597958795C2
:1018100077956795BA95C9F70097610571050895A1
:101820009B01AC010A2E069457954795379527954D
:10183000BA95C9F7620F731F841F951FA01D0895E5
:04184000F894FFCF4A
:101844008C01910196019B01A001A501AA014042CE
:101854000F00A086010010270000E80300006400C8
:1018640000000A0000000100000000000000000069
:101874000002000000007B0400000000272020205C
:10188400202020202020202020202020200025335C
:101894006C752E2530336C752E2530336C752534DC
:1018A40073002573003C25733E3D20202020004119
:1018B40020007374617274696E67207570007374AC
:1018C400617274696E672062672020004D687A2017
:1018D400003130306B0031306B6800316B687A0056
:1018E40031303048003130487A0031487A200000E5
:00000001FF
